{
  "contractName": "Cashback",
  "abi": [
    {
      "anonymous": false,
      "inputs": [
        {
          "indexed": true,
          "internalType": "address",
          "name": "user",
          "type": "address"
        },
        {
          "indexed": false,
          "internalType": "uint256",
          "name": "amount",
          "type": "uint256"
        }
      ],
      "name": "CashbackReceived",
      "type": "event"
    },
    {
      "anonymous": false,
      "inputs": [
        {
          "indexed": true,
          "internalType": "address",
          "name": "user",
          "type": "address"
        },
        {
          "indexed": false,
          "internalType": "uint256",
          "name": "amount",
          "type": "uint256"
        }
      ],
      "name": "CashbackWithdrawn",
      "type": "event"
    },
    {
      "inputs": [
        {
          "internalType": "address",
          "name": "",
          "type": "address"
        }
      ],
      "name": "cashbackBalances",
      "outputs": [
        {
          "internalType": "uint256",
          "name": "",
          "type": "uint256"
        }
      ],
      "stateMutability": "view",
      "type": "function"
    },
    {
      "stateMutability": "payable",
      "type": "receive"
    },
    {
      "inputs": [
        {
          "internalType": "uint256",
          "name": "amount",
          "type": "uint256"
        }
      ],
      "name": "registerCashback",
      "outputs": [],
      "stateMutability": "nonpayable",
      "type": "function"
    },
    {
      "inputs": [],
      "name": "withdrawCashback",
      "outputs": [],
      "stateMutability": "nonpayable",
      "type": "function"
    },
    {
      "inputs": [
        {
          "internalType": "address",
          "name": "user",
          "type": "address"
        }
      ],
      "name": "hasCashbackBalance",
      "outputs": [
        {
          "internalType": "bool",
          "name": "",
          "type": "bool"
        }
      ],
      "stateMutability": "view",
      "type": "function"
    }
  ],
  "bytecode": "0x608060405234801561001057600080fd5b506106f4806100206000396000f3fe6080604052600436106100435760003560e01c80634ed354eb1461004f578063724afb191461008c5780637fcb6753146100b55780639e56903d146100f25761004a565b3661004a57005b600080fd5b34801561005b57600080fd5b506100766004803603810190610071919061043c565b610109565b6040516100839190610484565b60405180910390f35b34801561009857600080fd5b506100b360048036038101906100ae91906104d5565b610153565b005b3480156100c157600080fd5b506100dc60048036038101906100d7919061043c565b6101f9565b6040516100e99190610511565b60405180910390f35b3480156100fe57600080fd5b50610107610211565b005b6000806000808473ffffffffffffffffffffffffffffffffffffffff1673ffffffffffffffffffffffffffffffffffffffff16815260200190815260200160002054119050919050565b806000803373ffffffffffffffffffffffffffffffffffffffff1673ffffffffffffffffffffffffffffffffffffffff16815260200190815260200160002060008282546101a1919061055b565b925050819055503373ffffffffffffffffffffffffffffffffffffffff167f3c36ee8a21a3a91d86a8605acecdc8be41cc6bb64a259b8b4f8302072dc47a23826040516101ee9190610511565b60405180910390a250565b60006020528060005260406000206000915090505481565b60008060003373ffffffffffffffffffffffffffffffffffffffff1673ffffffffffffffffffffffffffffffffffffffff16815260200190815260200160002054905060008111610297576040517f08c379a000000000000000000000000000000000000000000000000000000000815260040161028e906105ec565b60405180910390fd5b60008060003373ffffffffffffffffffffffffffffffffffffffff1673ffffffffffffffffffffffffffffffffffffffff1681526020019081526020016000208190555060003373ffffffffffffffffffffffffffffffffffffffff16826040516103019061063d565b60006040518083038185875af1925050503d806000811461033e576040519150601f19603f3d011682016040523d82523d6000602084013e610343565b606091505b5050905080610387576040517f08c379a000000000000000000000000000000000000000000000000000000000815260040161037e9061069e565b60405180910390fd5b3373ffffffffffffffffffffffffffffffffffffffff167f550b6791b38fd89f53d125cd28a82a309515326d004b7a7b0dcec415d69825da836040516103cd9190610511565b60405180910390a25050565b600080fd5b600073ffffffffffffffffffffffffffffffffffffffff82169050919050565b6000610409826103de565b9050919050565b610419816103fe565b811461042457600080fd5b50565b60008135905061043681610410565b92915050565b600060208284031215610452576104516103d9565b5b600061046084828501610427565b91505092915050565b60008115159050919050565b61047e81610469565b82525050565b60006020820190506104996000830184610475565b92915050565b6000819050919050565b6104b28161049f565b81146104bd57600080fd5b50565b6000813590506104cf816104a9565b92915050565b6000602082840312156104eb576104ea6103d9565b5b60006104f9848285016104c0565b91505092915050565b61050b8161049f565b82525050565b60006020820190506105266000830184610502565b92915050565b7f4e487b7100000000000000000000000000000000000000000000000000000000600052601160045260246000fd5b60006105668261049f565b91506105718361049f565b92508282019050808211156105895761058861052c565b5b92915050565b600082825260208201905092915050565b7f4e6f20636173686261636b2062616c616e636520617661696c61626c65000000600082015250565b60006105d6601d8361058f565b91506105e1826105a0565b602082019050919050565b60006020820190508181036000830152610605816105c9565b9050919050565b600081905092915050565b50565b600061062760008361060c565b915061063282610617565b600082019050919050565b60006106488261061a565b9150819050919050565b7f5472616e73666572206661696c65640000000000000000000000000000000000600082015250565b6000610688600f8361058f565b915061069382610652565b602082019050919050565b600060208201905081810360008301526106b78161067b565b905091905056fea2646970667358221220dc502e1d9666544265cf310f3332c6d462e6df69acb4a53db02d7003852d7e6a64736f6c63430008130033",
  "immutableReferences": {},
  "source": "pragma solidity ^0.8.0; //SPDX-License-Identifier: MIT\r\n\r\ncontract Cashback {\r\n    mapping(address => uint256) public cashbackBalances;\r\n\r\n    event CashbackReceived(address indexed user, uint256 amount);\r\n    event CashbackWithdrawn(address indexed user, uint256 amount);\r\n\r\n    function registerCashback(uint256 amount) external {\r\n        cashbackBalances[msg.sender] += amount;\r\n        emit CashbackReceived(msg.sender, amount);\r\n    }\r\n\r\nfunction withdrawCashback() public {\r\n    uint256 amount = cashbackBalances[msg.sender];\r\n    require(amount > 0, \"No cashback balance available\");\r\n\r\n    cashbackBalances[msg.sender] = 0;\r\n\r\n    (bool success, ) = msg.sender.call{value: amount}(\"\");\r\n    require(success, \"Transfer failed\");\r\n\r\n    emit CashbackWithdrawn(msg.sender, amount);\r\n}\r\n\r\n    function hasCashbackBalance(address user) public view returns (bool) {\r\n    return cashbackBalances[user] > 0;\r\n}\r\n\r\n    receive() external payable {}\r\n}\r\n",
  "sourcePath": "D:\\0002 - Areas\\Cursos\\FIAP-6BLC-Blockchain\\Desenvolvimento de Aplicaes Descentralizadas - Prf Danilo Pantini\\6blc-dapp\\contracts\\cashback.sol",
  "compiler": {
    "name": "solc",
    "version": "0.8.19+commit.7dd6d404.Emscripten.clang"
  },
  "schemaVersion": "3.4.13",
  "updatedAt": "2023-03-21T02:02:05.967Z",
  "devdoc": {
    "kind": "dev",
    "methods": {},
    "version": 1
  },
  "userdoc": {
    "kind": "user",
    "methods": {},
    "version": 1
  }
}